:100000000C942A000C943F000C943F000C943F0089
:100010000C943F000C943F000C943F000C943F0064
:100020000C943F000C943F000C943F000C943F0054
:100030000C943F000C943F000C943F000C943F0044
:100040000C943F000C943F000C943F000C943F0034
:100050000C943F0011241FBECFE5D8E0DEBFCDBF1A
:1000600011E0A0E6B0E0EAE3F8E002C005900D92EE
:10007000A832B107D9F70E94A2020C941B040C9479
:10008000000080EC87B983E886B90895982F9770AF
:10009000869586958695813021F130F08230F1F198
:1000A000833009F458C00895613069F44BB321E0FE
:1000B00030E0B90102C0660F771F9A95E2F7CB01D5
:1000C000842B8BBB08954BB321E030E0B90102C013
:1000D000660F771F9A95E2F7CB01809584238BBB3F
:1000E0000895613069F448B321E030E0B90102C0FD
:1000F000660F771F9A95E2F7CB01842B88BB089592
:1001000048B321E030E0B90102C0660F771F9A952D
:10011000E2F7CB018095842388BB0895613069F4B0
:1001200045B321E030E0B90102C0660F771F9A9510
:10013000E2F7CB01842B85BB089545B321E030E085
:10014000B90102C0660F771F9A95E2F7CB0180953F
:10015000842385BB0895613069F442B321E030E027
:10016000B90102C0660F771F9A95E2F7CB01842B85
:1001700082BB089542B321E030E0B90102C0660FAE
:10018000771F9A95E2F7CB018095842382BB08956F
:10019000E0E6F0E080E041E050E0282F2770982F63
:1001A000969596959695913009F130F09230C1F17F
:1001B000933009F44FC067C09081913059F49AB3DD
:1001C000BA0102C0660F771F2A95E2F79B01292B1F
:1001D0002ABB59C03AB3BA0102C0660F771F2A95ED
:1001E000E2F7962F909593239ABB4DC09081913062
:1001F00059F497B3BA0102C0660F771F2A95E2F748
:100200009B01292B27BB3FC037B3BA0102C0660F41
:10021000771F2A95E2F7962F9095932397BB33C0CB
:100220009081913059F494B3BA0102C0660F771FE0
:100230002A95E2F79B01292B24BB25C034B3BA01D0
:1002400002C0660F771F2A95E2F7962F90959323A9
:1002500094BB19C09081913059F491B3BA0102C096
:10026000660F771F2A95E2F79B01292B21BB0BC054
:1002700031B3BA0102C0660F771F2A95E2F7962FB5
:100280009095932391BB8F5F3296803209F085CF92
:10029000E1E6F0E080E041E050E0282F2770982F61
:1002A000969596959695913009F130F09230C1F17E
:1002B000933009F44FC067C09081913059F49BB3DB
:1002C000BA0102C0660F771F2A95E2F79B01292B1E
:1002D0002BBB59C03BB3BA0102C0660F771F2A95EA
:1002E000E2F7962F909593239BBB4DC09081913060
:1002F00059F498B3BA0102C0660F771F2A95E2F746
:100300009B01292B28BB3FC038B3BA0102C0660F3E
:10031000771F2A95E2F7962F9095932398BB33C0C9
:100320009081913059F495B3BA0102C0660F771FDE
:100330002A95E2F79B01292B25BB25C035B3BA01CD
:1003400002C0660F771F2A95E2F7962F90959323A8
:1003500095BB19C09081913059F492B3BA0102C093
:10036000660F771F2A95E2F79B01292B22BB0BC052
:1003700032B3BA0102C0660F771F2A95E2F7962FB3
:100380009095932392BB8F5F3296803209F085CF90
:100390000895CF93C82F8BB38F709C2F907F892B9C
:1003A0008BBB60E089E00E94460061E08BE00E9428
:1003B000460087EC90E00197F1F700C0000060E094
:1003C0008BE00E9446008FE19EE40197F1F700C0A8
:1003D00000008BB3282F2F7030E1C39FC001112480
:1003E000822B8BBB60E089E00E94460061E08BE0DD
:1003F0000E9446008FE39FE10197F1F700C00000E3
:1004000060E08BE00E9446008FE39FE10197F1F7E7
:1004100000C00000CF91089560E08AE00E9446008D
:100420002FEF89EF90E0215080409040E1F700C02D
:10043000000083E30E94C9018FE39FE10197F1F778
:1004400000C0000082E30E94C90188E20E94C90145
:1004500086E00E94C9018CE00E94C90181E00E94EF
:10046000C9018FE39FE10197F1F700C000000895F3
:10047000CF93C82F8BB38F709C2F907F892B8BBB12
:1004800061E089E00E94460061E08BE00E94460046
:1004900087EC90E00197F1F700C0000060E08BE08E
:1004A0000E9446008FE39FE10197F1F700C0000032
:1004B0008BB3282F2F7030E1C39FC0011124822BF2
:1004C0008BBB61E089E00E94460061E08BE00E9406
:1004D000460087EC90E00197F1F700C0000060E073
:1004E0008BE00E9446008FE39FE10197F1F700C087
:1004F0000000CF9108950F931F93CF93FC0180814B
:10050000882359F08F01C0E00E943802CF5FF801C4
:10051000EC0FF11D80818111F7CFCF911F910F91C9
:100520000895813019F0823039F00895862F8F7048
:1005300080680E94C9010895862F83708C600E9494
:10054000C90108950E94C8000E940C0280E20E9426
:1005500038020E94C8000E9441000E94BE0380EA47
:1005600090E00E94D00360E081E00E94910288EA5E
:1005700090E00E947B022FEF83ED90E321508040BA
:100580009040E1F700C0000060E081E00E9491022D
:1005900084EB90E00E947B022FEF83ED90E32150EB
:1005A00080409040E1F700C0000060E081E00E94E0
:1005B000910282EC90E00E947B022FEF83ED90E3AA
:1005C000215080409040E1F700C0000060E081E0F1
:1005D0000E94910280ED90E00E947B022FEF83ED5C
:1005E00090E3215080409040E1F700C0000060E0BF
:1005F00081E00E9491028FED90E00E947B022FEF3C
:1006000083ED90E3215080409040E1F700C000006E
:1006100060E081E00E9491028EEE90E00E947B02F9
:100620002FEF83ED90E3215080409040E1F700C030
:10063000000060E081E00E9491028CEF90E00E9457
:100640007B028DE40E94A703C49800E010E00E94A2
:10065000CC03C82F813371F48BE091E00E94D0036A
:1006600081E30E94B903853529F580E191E00E947C
:10067000D00320C0823371F48BE091E00E94D0035C
:1006800082E30E94B903853511F785E191E00E946C
:10069000D003DDCF833371F48BE091E00E94D0036F
:1006A00083E30E94B903853591F685E191E00E94CC
:1006B000D003CDCFC43371F48BE091E00E94D0031E
:1006C00084E30E94B903853511F685E191E00E942B
:1006D000D003BDCFC53309F0BACF8BE091E00E94C3
:1006E000D00385E30E94B903853571F42FEF87E8C5
:1006F00093E1215080409040E1F700C0000085E385
:100700000E94B903082F10E060E081E00E9491028E
:100710008AE191E00E947B024AE06DB77EB76F5F8D
:100720007F4FC8010E94E6038DB79EB701960E94D5
:100730007B022FEF83ED90E3215080409040E1F762
:1007400000C0000085E191E00E94D00380CF8D348D
:1007500019F0833551F0089587B3806B87BBBE983D
:100760008DB180658DB9C49A0895BD98BE9A6E9A70
:1007700008958FB9779BFECF8FB108958AB18861B4
:100780008AB980B5826880BD87E689B910BC0895B2
:100790005D9BFECF8CB908955F9BFECF8CB1089511
:1007A0000F931F93CF93FC018081882359F08F0111
:1007B000C0E00E94C803CF5FF801EC0FF11D8081FB
:1007C0008111F7CFCF911F910F910895BB274A3028
:1007D00031F4992322F4BDE2909581959F4F0C94BA
:1007E000F203BB27FB015527AA27880F991FAA1FD1
:1007F000A41710F0A41B83955051B9F7A05DAA333C
:1008000008F0A95DA193009779F7B111B193119206
:10081000CB010C940B04DC01FC01672F7191772351
:10082000E1F7329704C07C916D9370836291AE17AB
:0A083000BF07C8F30895F894FFCF46
:10083A0001000100010001000100010001000100A6
:10084A000100010001000100010001000100010096
:10085A000100010001000100010001000100010086
:10086A000100010001000100010001000100010076
:10087A0077656C636F6D650077656C636F6D652076
:10088A0053697200696E7365727420616374696F6B
:10089A006E0020312D6C6967687473206F6E2000BA
:1008AA0020322D6C6967687473206F666620002099
:1008BA00332D646F6F7273206F70656E2000203461
:1008CA002D646F6F7273206F6666200020352D7459
:1008DA00656D707261747572652000776169740064
:1008EA00446F6E6500646F6E650074656D70657245
:0808FA0061747572653A20007B
:00000001FF
