S0120000736D6172745F686F6D652E73726563E3
S11300000C942A000C943F000C943F000C943F0085
S11300100C943F000C943F000C943F000C943F0060
S11300200C943F000C943F000C943F000C943F0050
S11300300C943F000C943F000C943F000C943F0040
S11300400C943F000C943F000C943F000C943F0030
S11300500C943F0011241FBECFE5D8E0DEBFCDBF16
S113006010E0A0E6B0E0E0E3F6E002C005900D92F7
S1130070A43BB107D9F70E94B0020C9416030C9468
S1130080000080EC87B983E886B9089597B1907E23
S11300908F71892B87B9369A349BFECF349A84B1F9
S11300A025B190E0922B0895982F977086958695A8
S11300B08695813021F130F08230F1F1833009F4FA
S11300C058C00895613069F44BB321E030E0B901C0
S11300D002C0660F771F9A95E2F7CB01842B8BBB86
S11300E008954BB321E030E0B90102C0660F771FD9
S11300F09A95E2F7CB01809584238BBB08956130F8
S113010069F448B321E030E0B90102C0660F771FFB
S11301109A95E2F7CB01842B88BB089548B321E07C
S113012030E0B90102C0660F771F9A95E2F7CB0160
S11301308095842388BB0895613069F445B321E038
S113014030E0B90102C0660F771F9A95E2F7CB0140
S1130150842B85BB089545B321E030E0B90102C08A
S1130160660F771F9A95E2F7CB018095842385BBB0
S11301700895613069F442B321E030E0B90102C06E
S1130180660F771F9A95E2F7CB01842B82BB089503
S113019042B321E030E0B90102C0660F771F9A959F
S11301A0E2F7CB018095842382BB0895E0E6F0E07A
S11301B080E041E050E0282F2770982F969596957F
S11301C09695913009F130F09230C1F1933009F4F1
S11301D04FC067C09081913059F49AB3BA0102C0FC
S11301E0660F771F2A95E2F79B01292B2ABB59C07A
S11301F03AB3BA0102C0660F771F2A95E2F7962F29
S1130200909593239ABB4DC09081913059F497B344
S1130210BA0102C0660F771F2A95E2F79B01292BCA
S113022027BB3FC037B3BA0102C0660F771F2A95B8
S1130230E2F7962F9095932397BB33C0908191302A
S113024059F494B3BA0102C0660F771F2A95E2F7F6
S11302509B01292B24BB25C034B3BA0102C0660F0D
S1130260771F2A95E2F7962F9095932394BB19C094
S11302709081913059F491B3BA0102C0660F771F8F
S11302802A95E2F79B01292B21BB0BC031B3BA019C
S113029002C0660F771F2A95E2F7962F9095932355
S11302A091BB8F5F3296803209F085CFE1E6F0E0B2
S11302B080E041E050E0282F2770982F969596957E
S11302C09695913009F130F09230C1F1933009F4F0
S11302D04FC067C09081913059F49BB3BA0102C0FA
S11302E0660F771F2A95E2F79B01292B2BBB59C078
S11302F03BB3BA0102C0660F771F2A95E2F7962F27
S1130300909593239BBB4DC09081913059F498B341
S1130310BA0102C0660F771F2A95E2F79B01292BC9
S113032028BB3FC038B3BA0102C0660F771F2A95B5
S1130330E2F7962F9095932398BB33C09081913028
S113034059F495B3BA0102C0660F771F2A95E2F7F4
S11303509B01292B25BB25C035B3BA0102C0660F0A
S1130360771F2A95E2F7962F9095932395BB19C092
S11303709081913059F492B3BA0102C0660F771F8D
S11303802A95E2F79B01292B22BB0BC032B3BA0199
S113039002C0660F771F2A95E2F7962F9095932354
S11303A092BB8F5F3296803209F085CF0895CF9348
S11303B0C82F8BB38F709C2F907F892B8BBB60E0F1
S11303C089E00E94540061E08BE00E94540087ECB5
S11303D090E00197F1F700C0000060E08BE00E941C
S11303E054008FE19EE40197F1F700C000008BB345
S11303F0282F2F7030E1C39FC0011124822B8BBBA7
S113040060E089E00E94540061E08BE00E945400A7
S11304108FE39FE10197F1F700C0000060E08BE0FB
S11304200E9454008FE39FE10197F1F700C00000A0
S1130430CF91089560E08AE00E9454002FEF89EF85
S113044090E0215080409040E1F700C0000083E339
S11304500E94D7018FE39FE10197F1F700C00000EC
S113046082E30E94D70188E20E94D70186E00E94BD
S1130470D7018CE00E94D70181E00E94D7018FE36D
S11304809FE10197F1F700C000000895CF93C82FB2
S11304908BB38F709C2F907F892B8BBB61E089E09D
S11304A00E94540061E08BE00E94540087EC90E0CD
S11304B00197F1F700C0000060E08BE00E94540057
S11304C08FE39FE10197F1F700C000008BB3282F61
S11304D02F7030E1C39FC0011124822B8BBB61E0DC
S11304E089E00E94540061E08BE00E94540087EC94
S11304F090E00197F1F700C0000060E08BE00E94FB
S113050054008FE39FE10197F1F700C00000CF9101
S113051008950F931F93CF93FC018081882359F092
S11305208F01C0E00E944602CF5FF801EC0FF11D7D
S113053080818111F7CFCF911F910F910895813060
S113054019F0823039F00895862F8F7080680E94E8
S1130550D7010895862F83708C600E94D701089577
S11305608B9A8D9A87E893E197BD86BD8FB5826893
S11305708FBD8EB58B618EBD0E94D6000E941A027B
S113058080E20E9446020E94D6000E94410083E558
S11305900E94FF0209EF10E0C6E7D1E085E50E9462
S11305A01103813311F4939AF9CF823311F49398A0
S11305B0F5CF833359F4DBBDCABD60E081E00E940E
S11305C09F0280EA90E00E948902E8CF843359F4C4
S11305D01BBD0ABD60E081E00E949F028AEA90E0B0
S11305E00E948902DBCF8533C9F681E00E94460070
S11305F096958795969587950E941103CFCF8D3454
S113060019F0833551F0089587B3806B87BBBE988A
S11306108DB180658DB9C49A0895BD98BE9A6E9ABD
S113062008958FB9779BFECF8FB10895F894FFCFCB
S113063001000100010001000100010001000100AE
S1130640010001000100010001000100010001009E
S1130650010001000100010001000100010001008E
S1130660010001000100010001000100010001007E
S113067020616E676C653D39300020616E676C6582
S10706803D30000005
S9030000FC
